{"abi":[{"type":"constructor","inputs":[{"name":"signerAddress","type":"address","internalType":"address"}],"stateMutability":"nonpayable"},{"type":"receive","stateMutability":"payable"},{"type":"function","name":"ADMIN_ROLE","inputs":[],"outputs":[{"name":"","type":"bytes32","internalType":"bytes32"}],"stateMutability":"view"},{"type":"function","name":"COMMISSIONS_MANAGER","inputs":[],"outputs":[{"name":"","type":"bytes32","internalType":"bytes32"}],"stateMutability":"view"},{"type":"function","name":"DEFAULT_ADMIN_ROLE","inputs":[],"outputs":[{"name":"","type":"bytes32","internalType":"bytes32"}],"stateMutability":"view"},{"type":"function","name":"approveAllowance","inputs":[{"name":"tokens","type":"address[]","internalType":"contract IERC20[]"}],"outputs":[],"stateMutability":"nonpayable"},{"type":"function","name":"changeSigner","inputs":[{"name":"newSigner","type":"address","internalType":"address"}],"outputs":[],"stateMutability":"nonpayable"},{"type":"function","name":"claim","inputs":[{"name":"round","type":"uint32","internalType":"uint32"},{"name":"tokens","type":"address[]","internalType":"contract IERC20[]"}],"outputs":[],"stateMutability":"nonpayable"},{"type":"function","name":"enableClaims","inputs":[{"name":"round","type":"uint32","internalType":"uint32"},{"name":"status","type":"bool","internalType":"bool"}],"outputs":[],"stateMutability":"nonpayable"},{"type":"function","name":"getRoleAdmin","inputs":[{"name":"role","type":"bytes32","internalType":"bytes32"}],"outputs":[{"name":"","type":"bytes32","internalType":"bytes32"}],"stateMutability":"view"},{"type":"function","name":"grantRole","inputs":[{"name":"role","type":"bytes32","internalType":"bytes32"},{"name":"account","type":"address","internalType":"address"}],"outputs":[],"stateMutability":"nonpayable"},{"type":"function","name":"hasRole","inputs":[{"name":"role","type":"bytes32","internalType":"bytes32"},{"name":"account","type":"address","internalType":"address"}],"outputs":[{"name":"","type":"bool","internalType":"bool"}],"stateMutability":"view"},{"type":"function","name":"isEnabled","inputs":[{"name":"","type":"uint32","internalType":"uint32"}],"outputs":[{"name":"","type":"bool","internalType":"bool"}],"stateMutability":"view"},{"type":"function","name":"pendingClaims","inputs":[{"name":"","type":"address","internalType":"address"},{"name":"","type":"uint32","internalType":"uint32"},{"name":"","type":"address","internalType":"contract IERC20"}],"outputs":[{"name":"","type":"uint256","internalType":"uint256"}],"stateMutability":"view"},{"type":"function","name":"presale","inputs":[],"outputs":[{"name":"","type":"address","internalType":"contract IPreSale"}],"stateMutability":"view"},{"type":"function","name":"purchaseWithClaim","inputs":[{"name":"round","type":"uint32","internalType":"uint32"},{"name":"deadline","type":"uint256","internalType":"uint256"},{"name":"normalizationFactors","type":"uint8[]","internalType":"uint8[]"},{"name":"tokenPrices","type":"uint256[]","internalType":"uint256[]"},{"name":"tokens","type":"address[]","internalType":"contract IERC20[]"},{"name":"amounts","type":"uint256[]","internalType":"uint256[]"},{"name":"minAmountsToken","type":"uint256[]","internalType":"uint256[]"},{"name":"v","type":"uint8","internalType":"uint8"},{"name":"r","type":"bytes32","internalType":"bytes32"},{"name":"s","type":"bytes32","internalType":"bytes32"}],"outputs":[],"stateMutability":"nonpayable"},{"type":"function","name":"renounceRole","inputs":[{"name":"role","type":"bytes32","internalType":"bytes32"},{"name":"callerConfirmation","type":"address","internalType":"address"}],"outputs":[],"stateMutability":"nonpayable"},{"type":"function","name":"revokeRole","inputs":[{"name":"role","type":"bytes32","internalType":"bytes32"},{"name":"account","type":"address","internalType":"address"}],"outputs":[],"stateMutability":"nonpayable"},{"type":"function","name":"setClaim","inputs":[{"name":"to","type":"address[]","internalType":"address[]"},{"name":"round","type":"uint32","internalType":"uint32"},{"name":"claims","type":"tuple[][]","internalType":"struct Claims.ClaimInfo[][]","components":[{"name":"token","type":"address","internalType":"contract IERC20"},{"name":"amount","type":"uint256","internalType":"uint256"}]}],"outputs":[],"stateMutability":"nonpayable"},{"type":"function","name":"signerWallet","inputs":[],"outputs":[{"name":"","type":"address","internalType":"address"}],"stateMutability":"view"},{"type":"function","name":"supportsInterface","inputs":[{"name":"interfaceId","type":"bytes4","internalType":"bytes4"}],"outputs":[{"name":"","type":"bool","internalType":"bool"}],"stateMutability":"view"},{"type":"function","name":"updatePreSaleAddress","inputs":[{"name":"newPresale","type":"address","internalType":"contract IPreSale"}],"outputs":[],"stateMutability":"nonpayable"},{"type":"event","name":"ClaimSet","inputs":[{"name":"to","type":"address","indexed":true,"internalType":"address"},{"name":"round","type":"uint32","indexed":true,"internalType":"uint32"},{"name":"claimInfo","type":"tuple","indexed":false,"internalType":"struct Claims.ClaimInfo","components":[{"name":"token","type":"address","internalType":"contract IERC20"},{"name":"amount","type":"uint256","internalType":"uint256"}]}],"anonymous":false},{"type":"event","name":"FundsClaimed","inputs":[{"name":"by","type":"address","indexed":true,"internalType":"address"},{"name":"round","type":"uint32","indexed":true,"internalType":"uint32"},{"name":"token","type":"address","indexed":false,"internalType":"contract IERC20"},{"name":"amount","type":"uint256","indexed":false,"internalType":"uint256"}],"anonymous":false},{"type":"event","name":"PresaleUpdated","inputs":[{"name":"prevAddress","type":"address","indexed":false,"internalType":"address"},{"name":"newAddress","type":"address","indexed":false,"internalType":"address"}],"anonymous":false},{"type":"event","name":"RoleAdminChanged","inputs":[{"name":"role","type":"bytes32","indexed":true,"internalType":"bytes32"},{"name":"previousAdminRole","type":"bytes32","indexed":true,"internalType":"bytes32"},{"name":"newAdminRole","type":"bytes32","indexed":true,"internalType":"bytes32"}],"anonymous":false},{"type":"event","name":"RoleGranted","inputs":[{"name":"role","type":"bytes32","indexed":true,"internalType":"bytes32"},{"name":"account","type":"address","indexed":true,"internalType":"address"},{"name":"sender","type":"address","indexed":true,"internalType":"address"}],"anonymous":false},{"type":"event","name":"RoleRevoked","inputs":[{"name":"role","type":"bytes32","indexed":true,"internalType":"bytes32"},{"name":"account","type":"address","indexed":true,"internalType":"address"},{"name":"sender","type":"address","indexed":true,"internalType":"address"}],"anonymous":false},{"type":"event","name":"RoundEnableUpdated","inputs":[{"name":"oldAccess","type":"bool","indexed":false,"internalType":"bool"},{"name":"newAccess","type":"bool","indexed":false,"internalType":"bool"}],"anonymous":false},{"type":"event","name":"SignerUpdated","inputs":[{"name":"oldSigner","type":"address","indexed":false,"internalType":"address"},{"name":"newSigner","type":"address","indexed":false,"internalType":"address"}],"anonymous":false},{"type":"error","name":"AccessControlBadConfirmation","inputs":[]},{"type":"error","name":"AccessControlUnauthorizedAccount","inputs":[{"name":"account","type":"address","internalType":"address"},{"name":"neededRole","type":"bytes32","internalType":"bytes32"}]},{"type":"error","name":"AddressEmptyCode","inputs":[{"name":"target","type":"address","internalType":"address"}]},{"type":"error","name":"AddressInsufficientBalance","inputs":[{"name":"account","type":"address","internalType":"address"}]},{"type":"error","name":"ArrayLengthMismatch","inputs":[]},{"type":"error","name":"ECDSAInvalidSignature","inputs":[]},{"type":"error","name":"ECDSAInvalidSignatureLength","inputs":[{"name":"length","type":"uint256","internalType":"uint256"}]},{"type":"error","name":"ECDSAInvalidSignatureS","inputs":[{"name":"s","type":"bytes32","internalType":"bytes32"}]},{"type":"error","name":"FailedInnerCall","inputs":[]},{"type":"error","name":"IdenticalValue","inputs":[]},{"type":"error","name":"InvalidData","inputs":[]},{"type":"error","name":"InvalidSignature","inputs":[]},{"type":"error","name":"ReentrancyGuardReentrantCall","inputs":[]},{"type":"error","name":"RoundNotEnabled","inputs":[]},{"type":"error","name":"RoundNotEnded","inputs":[]},{"type":"error","name":"SafeERC20FailedOperation","inputs":[{"name":"token","type":"address","internalType":"address"}]},{"type":"error","name":"WaitForRoundDisable","inputs":[]},{"type":"error","name":"ZeroAddress","inputs":[]},{"type":"error","name":"ZeroLengthArray","inputs":[]}],"bytecode":{"object":"0x60803461013757601f61198738819003918201601f19168301916001600160401b0383118484101761013c5780849260209460405283398101031261013757516001600160a01b038116908190036101375760018055801561012557600380546001600160a01b031916919091179055600080516020611967833981519152600081815260208190527f5cbfc8ee58ca47855df7bcf648dd304ddb6b932f9b87878bdf6318d7ec7ee5b88054908390557fbd79b86ffe0ab8e8776151514217cd7cacd52c909f66475c3af44e129f0b00ff90839081838580a47f28d695c7dfc0dc20c36b38cc22e861d8a3c0da73ef3975e85a4bf12193642a5c908183526001604084200192848454945580a461011533610152565b5060405161177490816101f38239f35b60405163d92e233d60e01b8152600490fd5b600080fd5b634e487b7160e01b600052604160045260246000fd5b6001600160a01b031660008181527f5cbfc8ee58ca47855df7bcf648dd304ddb6b932f9b87878bdf6318d7ec7ee5b760205260408120549091906000805160206119678339815191529060ff166101ed57808352826020526040832082845260205260408320600160ff198254161790557f2f8788117e7eff1d82e926ec794901d17c78024a50270940304540a733656f0d339380a4600190565b50509056fe60a080604052600436101561001d575b50361561001b57600080fd5b005b60003560e01c90816301ffc9a714610efd57508063054a68ad14610e8e578063248a9ca314610e5f5780632f2ff15d14610e2057806336568abe14610dd9578063461c48cd14610d395780635f91d40614610cfd57806364f0d35e14610cd45780637188cb3514610c4657806375b238fc14610c0b57806391d1485414610bbe578063a217fddf14610ba2578063a24e178814610b33578063aad2b72314610a92578063c4f805fe14610862578063cabb454914610827578063ce73f87d1461028e578063d547741f1461024f578063fdea8e0b146102265763ff93be0314610106573861000f565b346102215760403660031901126102215761011f610f8f565b60243567ffffffffffffffff81116102215761013f903690600401610fb6565b9161014861136b565b6101518161138e565b336000526020600460205263ffffffff604060002092169182600052602052604060002060005b8581106101855760018055005b808461019c6101976001948a8a610fe7565b610ff7565b838060a01b03811660005284865260406000208054908115610218577f4978506686bd9ae370ab4cd6b1b3093dad6682e7840df229a6534e9dc4ba522391600061020e92556101eb8185611477565b604080516001600160a01b03909516855260208501919091523393918291820190565b0390a35b01610178565b50505050610212565b600080fd5b34610221576000366003190112610221576002546040516001600160a01b039091168152602090f35b346102215760403660031901126102215761001b60043561026e610f66565b9080600052600060205261028960016040600020015461112d565b6111d1565b3461022157610140366003190112610221576102a8610f8f565b67ffffffffffffffff90604435828111610221576102ca903690600401610fb6565b92606435818111610221576102e3903690600401610fb6565b906080529260843582811161022157610300903690600401610fb6565b92909460a4358281116102215761031b903690600401610fb6565b94909260c43511610221576103353660c435600401610fb6565b91909560ff60e4351660e435036102215761034e61136b565b6103578661138e565b891561081557838a1480159061080b575b8015610801575b80156107f7575b6107e5576040513360601b602082015263ffffffff60e01b8760e01b1660348201526103a8603882018660805161145c565b899060005b8d81106107c3575060209150602435815201818b60005b86811061079b5750506103db6103e992858a61145c565b03601f198101835282611035565b6020815191012060018060a01b0360035416907f19457468657265756d205369676e6564204d6573736167653a0a333200000000600052601c5261044761043e610124356101043560e435603c6000206115e4565b90929192611668565b6001600160a01b03160361078957336000526004602052604060002063ffffffff871660005260205260406000209960005b8381106104865760018055005b808a6104b082858f82896104a38f99610197908e6104a996610fe7565b98610fe7565b3593610fe7565b3560ff81168103610221578e936104c8848a8f610fe7565b359460018060a01b038216600052602052604060002091825492831561077b5783851161077b57600090558284810311610765576002546001600160a01b039081169190831673eeeeeeeeeeeeeeeeeeeeeeeeeeeeeeeeeeeeeeee0361063b57813b156102215760e460ff918f60009463ffffffff89926040519c8d9788966327824e5360e01b885273eeeeeeeeeeeeeeeeeeeeeeeeeeeeeeeeeeeeeeee60048901528a602489015216604487015284606487015260848601523360a48601521660c48401525af190811561062f576001958d92610620575b505b8383036105b6575b505050505b01610479565b7f4978506686bd9ae370ab4cd6b1b3093dad6682e7840df229a6534e9dc4ba52239161061463ffffffff926105ed87870382611477565b604080516001600160a01b0390921682529690950360208601529116933393918291820190565b0390a38d808a816105ab565b6106299061100b565b386105a1565b6040513d6000823e3d90fd5b604051636eb1769f60e11b81523060048201526001600160a01b0383166024820152602081806044810103816001600160a01b0388165afa801561062f578691600091610730575b5010610721575b610697868d608051610fe7565b3596823b15610221576040516327824e5360e01b81526001600160a01b0385166004820152602481019890985260ff9190911660448801526064870185905260848701523360a487015263ffffffff8d1660c4870152600090869060e490829084905af190811561062f576001958d92610712575b506105a3565b61071b9061100b565b3861070c565b61072b8284611246565b61068a565b9150506020813d60201161075d575b8161074c60209383611035565b810103126102215785905138610683565b3d915061073f565b634e487b7160e01b600052601160045260246000fd5b5050505050600191506105b0565b604051638baa579f60e01b8152600490fd5b915091602080600192838060a01b036107b387610fa2565b16815201930191019083916103c4565b9082359060ff82168092036102215790815260209283019201906001016103ad565b60405163512509d360e11b8152600490fd5b5082811415610376565b508082141561036f565b5081841415610368565b604051630f59b9ff60e01b8152600490fd5b346102215760003660031901126102215760206040517f28d695c7dfc0dc20c36b38cc22e861d8a3c0da73ef3975e85a4bf12193642a5c8152f35b346102215760603660031901126102215760043567ffffffffffffffff811161022157610893903690600401610fb6565b9061089c610f7c565b9060443567ffffffffffffffff8111610221576108bd903690600401610fb6565b6108c8949194611057565b63ffffffff8416600052600593600560205260ff60406000205416610a80578215610a6e578183036107e55760005b83811061090057005b6001600160a01b03610916610197838789610fe7565b1615610a5c576001600160a01b03610932610197838789610fe7565b166000526004602052604060002063ffffffff8316600052602052604060002083821015610a465781871b88013590601e19893603018212156102215767ffffffffffffffff828a013511610221578189013560061b36036020838b0101136102215760005b828a013581106109ad575050506001016108f7565b600190600681901b848c01016020810190604001356001600160a01b036109d383610ff7565b1660005284602052806040600020558a6109f7610197898d888060a01b0394610fe7565b169060405192610a0c868060a01b0391610fa2565b16835260208301527fe58012850783f5239c792b9394f0264e9c95cf3882980249ae8efc411a921dee604063ffffffff8a1693a301610998565b634e487b7160e01b600052603260045260246000fd5b60405163d92e233d60e01b8152600490fd5b604051635cb045db60e01b8152600490fd5b604051632f51603560e01b8152600490fd5b3461022157602036600319011261022157610aab610f50565b610ab36110d1565b6003546001600160a01b0382811692908216908315610a5c57838214610b2157604080516001600160a01b0393841681529190921660208201527f2d025324f0a785e8c12d0a0d91a9caa49df4ef20ff87e0df7213a1d4f3157beb9190a16001600160a01b03191617600355005b604051631310759d60e11b8152600490fd5b346102215760203660031901126102215760043567ffffffffffffffff811161022157610b64903690600401610fb6565b610b6c6110d1565b60005b818110610b7857005b80610b9c610b8c6101976001948688610fe7565b838060a01b036002541690611246565b01610b6f565b3461022157600036600319011261022157602060405160008152f35b3461022157604036600319011261022157610bd7610f66565b600435600052600060205260406000209060018060a01b0316600052602052602060ff604060002054166040519015158152f35b346102215760003660031901126102215760206040517fdf8b4c520ffe197c5343c6f5aec59570151ef9a492f2c624fd45ddde6135ec428152f35b34610221576020366003190112610221576004356001600160a01b038181169182900361022157610c756110d1565b8115610a5c57600254908116828114610b2157604080516001600160a01b03928316815291841660208301527f42e6b4d0f422db8acba71d0435d0dd4e46fadb4a2d99683b66eded85126fb28591a16001600160a01b03191617600255005b34610221576000366003190112610221576003546040516001600160a01b039091168152602090f35b346102215760203660031901126102215763ffffffff610d1b610f8f565b166000526005602052602060ff604060002054166040519015158152f35b3461022157604036600319011261022157610d52610f8f565b602435908115158092036102215763ffffffff90610d6e611057565b1680600052600560205260ff604060002054161515828114610b215760407f747f56458041cea2ada41de00c95f1a8dc602dfa334765aafe548611948502d2918151908152846020820152a1600052600560205260406000209060ff80198354169116179055600080f35b3461022157604036600319011261022157610df2610f66565b336001600160a01b03821603610e0e5761001b906004356111d1565b60405163334bd91960e11b8152600490fd5b346102215760403660031901126102215761001b600435610e3f610f66565b90806000526000602052610e5a60016040600020015461112d565b611153565b346102215760203660031901126102215760043560005260006020526020600160406000200154604051908152f35b3461022157606036600319011261022157610ea7610f50565b610eaf610f7c565b6001600160a01b0360443581811693908490036102215716600052600460205263ffffffff604060002091166000526020526040600020906000526020526020604060002054604051908152f35b34610221576020366003190112610221576004359063ffffffff60e01b821680920361022157602091637965db0b60e01b8114908115610f3f575b5015158152f35b6301ffc9a760e01b14905083610f38565b600435906001600160a01b038216820361022157565b602435906001600160a01b038216820361022157565b6024359063ffffffff8216820361022157565b6004359063ffffffff8216820361022157565b35906001600160a01b038216820361022157565b9181601f840112156102215782359167ffffffffffffffff8311610221576020808501948460051b01011161022157565b9190811015610a465760051b0190565b356001600160a01b03811681036102215790565b67ffffffffffffffff811161101f57604052565b634e487b7160e01b600052604160045260246000fd5b90601f8019910116810190811067ffffffffffffffff82111761101f57604052565b3360009081527f344c38c63afa63cc0790d03fd9f5e1b1e0cb81e2f69d7bd71f512be2ba8de6de60205260409020547f28d695c7dfc0dc20c36b38cc22e861d8a3c0da73ef3975e85a4bf12193642a5c9060ff16156110b35750565b6044906040519063e2517d3f60e01b82523360048301526024820152fd5b3360009081527f5cbfc8ee58ca47855df7bcf648dd304ddb6b932f9b87878bdf6318d7ec7ee5b760205260409020547fdf8b4c520ffe197c5343c6f5aec59570151ef9a492f2c624fd45ddde6135ec429060ff16156110b35750565b80600052600060205260406000203360005260205260ff60406000205416156110b35750565b9060009180835282602052604083209160018060a01b03169182845260205260ff604084205416156000146111cc57808352826020526040832082845260205260408320600160ff198254161790557f2f8788117e7eff1d82e926ec794901d17c78024a50270940304540a733656f0d339380a4600190565b505090565b9060009180835282602052604083209160018060a01b03169182845260205260ff6040842054166000146111cc5780835282602052604083208284526020526040832060ff1981541690557ff6391f5c32d9c69d2a47ea670b442974b53935d1edc7fd64eb21e047a839171b339380a4600190565b60405163095ea7b360e01b602082018181526001600160a01b0394851660248401819052600019604480860191909152845291959492939267ffffffffffffffff9290608086018481118782101761101f576040528416600080809488519082855af1906112b261151a565b82611339575b508161132e575b50156112cf575b50505050509050565b60405196602088015260248701528060448701526044865260808601918683109083111761131a575061130f939461130a9160405282611572565b611572565b8038808080806112c6565b634e487b7160e01b81526041600452602490fd5b90503b1515386112bf565b80519192508115918215611351575b505090386112b8565b611364925060208091830101910161155a565b3880611348565b60026001541461137c576002600155565b604051633ee5aeb560e01b8152600490fd5b63ffffffff16600090808252600560205260ff6040832054161561144a576002546040516379a6d51f60e01b81526004810192909252606090829060249082906001600160a01b03165afa91821561143e578092611403575b505042106113f157565b604051636218b96960e11b8152600490fd5b9091506060823d606011611436575b8161141f60609383611035565b8101031261143357506020015138806113e7565b80fd5b3d9150611412565b604051903d90823e3d90fd5b604051630de6995560e41b8152600490fd5b91906001600160fb1b0381116102215760051b809282370190565b6001600160a01b03811673eeeeeeeeeeeeeeeeeeeeeeeeeeeeeeeeeeeeeeee036114e657508047106114ce57600080808093335af16114b461151a565b50156114bc57565b604051630a12f52160e11b8152600490fd5b60405163cd78605960e01b8152306004820152602490fd5b60405163a9059cbb60e01b6020820152336024820152604480820193909352918252611518919061130a606483611035565b565b3d15611555573d9067ffffffffffffffff821161101f5760405191611549601f8201601f191660200184611035565b82523d6000602084013e565b606090565b90816020910312610221575180151581036102215790565b60008061159b9260018060a01b03169360208151910182865af161159461151a565b90836116ed565b80519081151591826115c9575b50506115b15750565b60249060405190635274afe760e01b82526004820152fd5b6115dc925060208091830101910161155a565b1538806115a8565b91907f7fffffffffffffffffffffffffffffff5d576e7357a4501ddfe92f46681b20a0841161165c57926020929160ff608095604051948552168484015260408301526060820152600092839182805260015afa1561143e5780516001600160a01b0381161561165357918190565b50809160019190565b50505060009160039190565b60048110156116d7578061167a575050565b600181036116945760405163f645eedf60e01b8152600490fd5b600281036116b55760405163fce698f760e01b815260048101839052602490fd5b6003146116bf5750565b602490604051906335e2f38360e21b82526004820152fd5b634e487b7160e01b600052602160045260246000fd5b9061170257508051156114bc57805190602001fd5b81511580611735575b611713575090565b604051639996b31560e01b81526001600160a01b039091166004820152602490fd5b50803b1561170b56fea26469706673582212204531f85a17dfba1f887a6382943dbf80aa2b688b8010d6274c3dbe6c55df020564736f6c63430008190033df8b4c520ffe197c5343c6f5aec59570151ef9a492f2c624fd45ddde6135ec42","linkReferences":{}},"methodIdentifiers":{"ADMIN_ROLE()":"75b238fc","COMMISSIONS_MANAGER()":"cabb4549","DEFAULT_ADMIN_ROLE()":"a217fddf","approveAllowance(address[])":"a24e1788","changeSigner(address)":"aad2b723","claim(uint32,address[])":"ff93be03","enableClaims(uint32,bool)":"461c48cd","getRoleAdmin(bytes32)":"248a9ca3","grantRole(bytes32,address)":"2f2ff15d","hasRole(bytes32,address)":"91d14854","isEnabled(uint32)":"5f91d406","pendingClaims(address,uint32,address)":"054a68ad","presale()":"fdea8e0b","purchaseWithClaim(uint32,uint256,uint8[],uint256[],address[],uint256[],uint256[],uint8,bytes32,bytes32)":"ce73f87d","renounceRole(bytes32,address)":"36568abe","revokeRole(bytes32,address)":"d547741f","setClaim(address[],uint32,(address,uint256)[][])":"c4f805fe","signerWallet()":"64f0d35e","supportsInterface(bytes4)":"01ffc9a7","updatePreSaleAddress(address)":"7188cb35"},"id":0}