{"abi":[{"type":"constructor","inputs":[{"name":"initialPrice","type":"int256","internalType":"int256"}],"stateMutability":"nonpayable"},{"type":"function","name":"latestRoundData","inputs":[],"outputs":[{"name":"","type":"uint80","internalType":"uint80"},{"name":"answer","type":"int256","internalType":"int256"},{"name":"","type":"uint256","internalType":"uint256"},{"name":"","type":"uint256","internalType":"uint256"},{"name":"","type":"uint80","internalType":"uint80"}],"stateMutability":"view"},{"type":"function","name":"setLatestPrice","inputs":[{"name":"newPrice","type":"int256","internalType":"int256"}],"outputs":[],"stateMutability":"nonpayable"}],"bytecode":{"object":"0x608034604d57601f61012138819003918201601f19168301916001600160401b03831184841017605257808492602094604052833981010312604d575160005560405160b890816100698239f35b600080fd5b634e487b7160e01b600052604160045260246000fdfe6080806040526004361015601257600080fd5b600090813560e01c8063805fe7fb1460675763feaf968c14603257600080fd5b346063578160031936011260635760a091546001825260208201526001604082015242606082015260016080820152f35b5080fd5b8234607f576020366003190112607f57600435815580f35b80fdfea264697066735822122009a4b02cb1b751f5123f562ed7a3942db0ed00866e4bfbf3384770e5d4ec901064736f6c63430008190033","linkReferences":{}},"methodIdentifiers":{"latestRoundData()":"feaf968c","setLatestPrice(int256)":"805fe7fb"},"id":48}