{"abi":[{"type":"constructor","inputs":[{"name":"fundsWalletAddress","type":"address","internalType":"address"},{"name":"signerAddress","type":"address","internalType":"address"},{"name":"claimsContractAddress","type":"address","internalType":"address"},{"name":"owner","type":"address","internalType":"address"},{"name":"lastRound","type":"uint32","internalType":"uint32"},{"name":"initMaxCap","type":"uint256","internalType":"uint256"}],"stateMutability":"nonpayable"},{"type":"function","name":"allowedTokens","inputs":[{"name":"","type":"uint32","internalType":"uint32"},{"name":"","type":"address","internalType":"contract IERC20"}],"outputs":[{"name":"access","type":"bool","internalType":"bool"},{"name":"customPrice","type":"uint256","internalType":"uint256"}],"stateMutability":"view"},{"type":"function","name":"blacklistAddress","inputs":[{"name":"","type":"address","internalType":"address"}],"outputs":[{"name":"","type":"bool","internalType":"bool"}],"stateMutability":"view"},{"type":"function","name":"buyEnable","inputs":[],"outputs":[{"name":"","type":"bool","internalType":"bool"}],"stateMutability":"view"},{"type":"function","name":"changeFundsWallet","inputs":[{"name":"newFundsWallet","type":"address","internalType":"address"}],"outputs":[],"stateMutability":"nonpayable"},{"type":"function","name":"changeSigner","inputs":[{"name":"newSigner","type":"address","internalType":"address"}],"outputs":[],"stateMutability":"nonpayable"},{"type":"function","name":"claims","inputs":[{"name":"","type":"address","internalType":"address"},{"name":"","type":"uint32","internalType":"uint32"}],"outputs":[{"name":"","type":"uint256","internalType":"uint256"}],"stateMutability":"view"},{"type":"function","name":"claimsContract","inputs":[],"outputs":[{"name":"","type":"address","internalType":"address"}],"stateMutability":"view"},{"type":"function","name":"createNewRound","inputs":[{"name":"startTime","type":"uint256","internalType":"uint256"},{"name":"endTime","type":"uint256","internalType":"uint256"},{"name":"price","type":"uint256","internalType":"uint256"}],"outputs":[],"stateMutability":"nonpayable"},{"type":"function","name":"enableBuy","inputs":[{"name":"enabled","type":"bool","internalType":"bool"}],"outputs":[],"stateMutability":"nonpayable"},{"type":"function","name":"fundsWallet","inputs":[],"outputs":[{"name":"","type":"address","internalType":"address"}],"stateMutability":"view"},{"type":"function","name":"getLatestPrice","inputs":[{"name":"token","type":"address","internalType":"contract IERC20"}],"outputs":[{"name":"","type":"tuple","internalType":"struct PreSale.TokenInfo","components":[{"name":"latestPrice","type":"uint256","internalType":"uint256"},{"name":"normalizationFactorForToken","type":"uint8","internalType":"uint8"}]}],"stateMutability":"view"},{"type":"function","name":"getRoundCount","inputs":[],"outputs":[{"name":"","type":"uint32","internalType":"uint32"}],"stateMutability":"view"},{"type":"function","name":"maxCap","inputs":[],"outputs":[{"name":"","type":"uint256","internalType":"uint256"}],"stateMutability":"view"},{"type":"function","name":"owner","inputs":[],"outputs":[{"name":"","type":"address","internalType":"address"}],"stateMutability":"view"},{"type":"function","name":"purchaseTokenWithETH","inputs":[{"name":"code","type":"string","internalType":"string"},{"name":"round","type":"uint32","internalType":"uint32"},{"name":"deadline","type":"uint256","internalType":"uint256"},{"name":"minAmountToken","type":"uint256","internalType":"uint256"},{"name":"v","type":"uint8","internalType":"uint8"},{"name":"r","type":"bytes32","internalType":"bytes32"},{"name":"s","type":"bytes32","internalType":"bytes32"}],"outputs":[],"stateMutability":"payable"},{"type":"function","name":"purchaseTokenWithToken","inputs":[{"name":"token","type":"address","internalType":"contract IERC20"},{"name":"referenceNormalizationFactor","type":"uint8","internalType":"uint8"},{"name":"referenceTokenPrice","type":"uint256","internalType":"uint256"},{"name":"purchaseAmount","type":"uint256","internalType":"uint256"},{"name":"minAmountToken","type":"uint256","internalType":"uint256"},{"name":"code","type":"string","internalType":"string"},{"name":"round","type":"uint32","internalType":"uint32"},{"name":"deadline","type":"uint256","internalType":"uint256"},{"name":"v","type":"uint8","internalType":"uint8"},{"name":"r","type":"bytes32","internalType":"bytes32"},{"name":"s","type":"bytes32","internalType":"bytes32"}],"outputs":[],"stateMutability":"nonpayable"},{"type":"function","name":"purchaseWithClaim","inputs":[{"name":"token","type":"address","internalType":"contract IERC20"},{"name":"referenceTokenPrice","type":"uint256","internalType":"uint256"},{"name":"referenceNormalizationFactor","type":"uint8","internalType":"uint8"},{"name":"amount","type":"uint256","internalType":"uint256"},{"name":"minAmountToken","type":"uint256","internalType":"uint256"},{"name":"recipient","type":"address","internalType":"address"},{"name":"round","type":"uint32","internalType":"uint32"}],"outputs":[],"stateMutability":"payable"},{"type":"function","name":"renounceOwnership","inputs":[],"outputs":[],"stateMutability":"nonpayable"},{"type":"function","name":"rounds","inputs":[{"name":"","type":"uint32","internalType":"uint32"}],"outputs":[{"name":"startTime","type":"uint256","internalType":"uint256"},{"name":"endTime","type":"uint256","internalType":"uint256"},{"name":"price","type":"uint256","internalType":"uint256"}],"stateMutability":"view"},{"type":"function","name":"setTokenPriceFeed","inputs":[{"name":"tokens","type":"address[]","internalType":"contract IERC20[]"},{"name":"priceFeedData","type":"tuple[]","internalType":"struct TokenRegistry.PriceFeedData[]","components":[{"name":"priceFeed","type":"address","internalType":"contract AggregatorV3Interface"},{"name":"normalizationFactorForToken","type":"uint8","internalType":"uint8"},{"name":"tolerance","type":"uint256","internalType":"uint256"}]}],"outputs":[],"stateMutability":"nonpayable"},{"type":"function","name":"signerWallet","inputs":[],"outputs":[{"name":"","type":"address","internalType":"address"}],"stateMutability":"view"},{"type":"function","name":"tokenData","inputs":[{"name":"","type":"address","internalType":"contract IERC20"}],"outputs":[{"name":"priceFeed","type":"address","internalType":"contract AggregatorV3Interface"},{"name":"normalizationFactorForToken","type":"uint8","internalType":"uint8"},{"name":"tolerance","type":"uint256","internalType":"uint256"}],"stateMutability":"view"},{"type":"function","name":"totalPurchases","inputs":[],"outputs":[{"name":"","type":"uint256","internalType":"uint256"}],"stateMutability":"view"},{"type":"function","name":"transferOwnership","inputs":[{"name":"newOwner","type":"address","internalType":"address"}],"outputs":[],"stateMutability":"nonpayable"},{"type":"function","name":"updateAllowedTokens","inputs":[{"name":"round","type":"uint32","internalType":"uint32"},{"name":"tokens","type":"address[]","internalType":"contract IERC20[]"},{"name":"accesses","type":"bool[]","internalType":"bool[]"},{"name":"customPrices","type":"uint256[]","internalType":"uint256[]"}],"outputs":[],"stateMutability":"nonpayable"},{"type":"function","name":"updateBlackListedUser","inputs":[{"name":"which","type":"address","internalType":"address"},{"name":"access","type":"bool","internalType":"bool"}],"outputs":[],"stateMutability":"nonpayable"},{"type":"function","name":"updateRound","inputs":[{"name":"round","type":"uint32","internalType":"uint32"},{"name":"startTime","type":"uint256","internalType":"uint256"},{"name":"endTime","type":"uint256","internalType":"uint256"},{"name":"price","type":"uint256","internalType":"uint256"}],"outputs":[],"stateMutability":"nonpayable"},{"type":"event","name":"BlacklistUpdated","inputs":[{"name":"which","type":"address","indexed":false,"internalType":"address"},{"name":"accessNow","type":"bool","indexed":false,"internalType":"bool"}],"anonymous":false},{"type":"event","name":"BuyEnableUpdated","inputs":[{"name":"oldAccess","type":"bool","indexed":false,"internalType":"bool"},{"name":"newAccess","type":"bool","indexed":false,"internalType":"bool"}],"anonymous":false},{"type":"event","name":"FundsWalletUpdated","inputs":[{"name":"oldAddress","type":"address","indexed":false,"internalType":"address"},{"name":"newAddress","type":"address","indexed":false,"internalType":"address"}],"anonymous":false},{"type":"event","name":"OwnershipTransferred","inputs":[{"name":"previousOwner","type":"address","indexed":true,"internalType":"address"},{"name":"newOwner","type":"address","indexed":true,"internalType":"address"}],"anonymous":false},{"type":"event","name":"PurchasedWithClaimAmount","inputs":[{"name":"by","type":"address","indexed":true,"internalType":"address"},{"name":"amount","type":"uint256","indexed":false,"internalType":"uint256"},{"name":"token","type":"address","indexed":false,"internalType":"contract IERC20"},{"name":"round","type":"uint32","indexed":true,"internalType":"uint32"},{"name":"tokenPrice","type":"uint256","indexed":true,"internalType":"uint256"},{"name":"tokenPurchased","type":"uint256","indexed":false,"internalType":"uint256"}],"anonymous":false},{"type":"event","name":"PurchasedWithETH","inputs":[{"name":"by","type":"address","indexed":true,"internalType":"address"},{"name":"code","type":"string","indexed":false,"internalType":"string"},{"name":"amountPurchasedETH","type":"uint256","indexed":false,"internalType":"uint256"},{"name":"round","type":"uint32","indexed":true,"internalType":"uint32"},{"name":"roundPrice","type":"uint256","indexed":true,"internalType":"uint256"},{"name":"tokenPurchased","type":"uint256","indexed":false,"internalType":"uint256"}],"anonymous":false},{"type":"event","name":"PurchasedWithToken","inputs":[{"name":"token","type":"address","indexed":true,"internalType":"contract IERC20"},{"name":"tokenPrice","type":"uint256","indexed":false,"internalType":"uint256"},{"name":"by","type":"address","indexed":true,"internalType":"address"},{"name":"code","type":"string","indexed":false,"internalType":"string"},{"name":"amountPurchased","type":"uint256","indexed":false,"internalType":"uint256"},{"name":"tokenPurchased","type":"uint256","indexed":false,"internalType":"uint256"},{"name":"round","type":"uint32","indexed":true,"internalType":"uint32"}],"anonymous":false},{"type":"event","name":"RoundCreated","inputs":[{"name":"newRound","type":"uint32","indexed":true,"internalType":"uint32"},{"name":"roundData","type":"tuple","indexed":false,"internalType":"struct Rounds.RoundData","components":[{"name":"startTime","type":"uint256","internalType":"uint256"},{"name":"endTime","type":"uint256","internalType":"uint256"},{"name":"price","type":"uint256","internalType":"uint256"}]}],"anonymous":false},{"type":"event","name":"RoundUpdated","inputs":[{"name":"round","type":"uint32","indexed":true,"internalType":"uint32"},{"name":"roundData","type":"tuple","indexed":false,"internalType":"struct Rounds.RoundData","components":[{"name":"startTime","type":"uint256","internalType":"uint256"},{"name":"endTime","type":"uint256","internalType":"uint256"},{"name":"price","type":"uint256","internalType":"uint256"}]}],"anonymous":false},{"type":"event","name":"SignerUpdated","inputs":[{"name":"oldSigner","type":"address","indexed":false,"internalType":"address"},{"name":"newSigner","type":"address","indexed":false,"internalType":"address"}],"anonymous":false},{"type":"event","name":"TokenDataAdded","inputs":[{"name":"token","type":"address","indexed":false,"internalType":"contract IERC20"},{"name":"data","type":"tuple","indexed":false,"internalType":"struct TokenRegistry.PriceFeedData","components":[{"name":"priceFeed","type":"address","internalType":"contract AggregatorV3Interface"},{"name":"normalizationFactorForToken","type":"uint8","internalType":"uint8"},{"name":"tolerance","type":"uint256","internalType":"uint256"}]}],"anonymous":false},{"type":"event","name":"TokensAccessUpdated","inputs":[{"name":"round","type":"uint32","indexed":true,"internalType":"uint32"},{"name":"token","type":"address","indexed":true,"internalType":"contract IERC20"},{"name":"access","type":"bool","indexed":true,"internalType":"bool"},{"name":"customPrice","type":"uint256","indexed":false,"internalType":"uint256"}],"anonymous":false},{"type":"error","name":"AddressEmptyCode","inputs":[{"name":"target","type":"address","internalType":"address"}]},{"type":"error","name":"AddressInsufficientBalance","inputs":[{"name":"account","type":"address","internalType":"address"}]},{"type":"error","name":"ArrayLengthMismatch","inputs":[]},{"type":"error","name":"Blacklisted","inputs":[]},{"type":"error","name":"BuyNotEnable","inputs":[]},{"type":"error","name":"CodeSyncIssue","inputs":[]},{"type":"error","name":"DeadlineExpired","inputs":[]},{"type":"error","name":"ECDSAInvalidSignature","inputs":[]},{"type":"error","name":"ECDSAInvalidSignatureLength","inputs":[{"name":"length","type":"uint256","internalType":"uint256"}]},{"type":"error","name":"ECDSAInvalidSignatureS","inputs":[{"name":"s","type":"bytes32","internalType":"bytes32"}]},{"type":"error","name":"FailedInnerCall","inputs":[]},{"type":"error","name":"IdenticalValue","inputs":[]},{"type":"error","name":"IncorrectEndTime","inputs":[]},{"type":"error","name":"IncorrectRound","inputs":[]},{"type":"error","name":"IncorrectStartTime","inputs":[]},{"type":"error","name":"InvalidEndTime","inputs":[]},{"type":"error","name":"InvalidPurchase","inputs":[]},{"type":"error","name":"InvalidSignature","inputs":[]},{"type":"error","name":"InvalidStartTime","inputs":[]},{"type":"error","name":"MaxCapReached","inputs":[]},{"type":"error","name":"OnlyClaims","inputs":[]},{"type":"error","name":"OwnableInvalidOwner","inputs":[{"name":"owner","type":"address","internalType":"address"}]},{"type":"error","name":"OwnableUnauthorizedAccount","inputs":[{"name":"account","type":"address","internalType":"address"}]},{"type":"error","name":"PriceGreaterThanNextRound","inputs":[]},{"type":"error","name":"PriceInvalid","inputs":[]},{"type":"error","name":"PriceLessThanOldRound","inputs":[]},{"type":"error","name":"PriceNotFound","inputs":[]},{"type":"error","name":"PriceNotUpdated","inputs":[]},{"type":"error","name":"ReentrancyGuardReentrantCall","inputs":[]},{"type":"error","name":"RoundEnded","inputs":[]},{"type":"error","name":"RoundIdNotUpdated","inputs":[]},{"type":"error","name":"RoundNotStarted","inputs":[]},{"type":"error","name":"SafeERC20FailedOperation","inputs":[{"name":"token","type":"address","internalType":"address"}]},{"type":"error","name":"TokenDisallowed","inputs":[]},{"type":"error","name":"UnexpectedPriceDifference","inputs":[]},{"type":"error","name":"ZeroAddress","inputs":[]},{"type":"error","name":"ZeroLengthArray","inputs":[]},{"type":"error","name":"ZeroValue","inputs":[]}],"bytecode":{"object":"0x60c0346101bf57601f61216c38819003918201601f191683019291906001600160401b038411838510176101c4578160c092849260409687528339810103126101bf5761004b816101da565b90610058602082016101da565b916100648483016101da565b610070606084016101da565b9160808401519463ffffffff8616948587036101bf5760a00151956001600160a01b039485169586156101a7576000549160018060a01b0319978089851617600055878b5194167f8be0079c531659141344cd1fd0a4f28419497f9722a3daafe3b4186f6b6457e0600080a360805263ffffffff1960025416176002556001600555846006549316908115801561019d575b8015610193575b610184575060088054871690911781556001600160a81b0319909216911b610100600160a81b03161760011760065560078054909316911617905580156101735760a05251611f7d90816101ef823960805181610ec1015260a0518181816113cc0152611b820152f35b8151637c946ed760e01b8152600490fd5b63d92e233d60e01b8152600490fd5b5085851615610109565b5085831615610102565b8851631e4fbdf760e01b815260006004820152602490fd5b600080fd5b634e487b7160e01b600052604160045260246000fd5b51906001600160a01b03821682036101bf5756fe6080604052600436101561001257600080fd5b60003560e01c80630a7e0c561461145057806316345f18146114185780632194f3a2146113ef57806323548b8b146113b457806327824e531461122b57806327e45c2c146111d75780632a253026146110b55780632d55e7df14610e895780633d389faf14610e6657806341e7e34114610dee5780635962a94114610dd057806364f0d35e14610da35780636de7da7814610d7f578063715018a614610d2657806372287c0214610ad957806379a6d51f14610a8b5780637bc2d710146107d75780637d6f0d5f146107485780637fcb09721461071f5780638da5cb5b146106f657806392f588811461068f578063aad2b723146105ed578063cbbb28991461033a578063e09590d11461026b578063e9f8958f14610217578063f2fde38b146101895763f3290d751461014557600080fd5b34610184576020366003190112610184576001600160a01b0361016661162e565b16600052600b602052602060ff604060002054166040519015158152f35b600080fd5b34610184576020366003190112610184576101a261162e565b6101aa6119d5565b6001600160a01b039081169081156101fe57600054826bffffffffffffffffffffffff60a01b821617600055167f8be0079c531659141344cd1fd0a4f28419497f9722a3daafe3b4186f6b6457e0600080a3005b604051631e4fbdf760e01b815260006004820152602490fd5b346101845760403660031901126101845761023061162e565b6102386115ea565b9060018060a01b0316600052600a60205263ffffffff604060002091166000526020526020604060002054604051908152f35b346101845760403660031901126101845761028461162e565b60243580151591828203610184576001600160a01b03168015610328576102a96119d5565b80600052600b6020528260ff60406000205416151514610316577f6a12b3df6cba4203bd7fd06b816789f87de8c594299aed5717ae070fac781bac6040610314948151908482526020820152a1600052600b60205260406000209060ff801983541691151516179055565b005b604051631310759d60e11b8152600490fd5b60405163d92e233d60e01b8152600490fd5b346101845760403660031901126101845767ffffffffffffffff6004358181116101845761036c9036906004016115fd565b91806024351161018457366023602435011215610184576024356004013511610184573660246060813560040135028135010111610184576103ac6119d5565b81156105db576024356004013582036105c95760005b8281106103cb57005b602435600401358110156105b3576001600160a01b036103f46103ef838686611717565b611727565b1690816000526001602052604060002060405161041081611676565b81546001600160a01b038116825260a01c60ff166020820190815260019290920154604082019081529084158015610591575b61032857516001600160a01b039081169061046660248035606088020101611727565b1614918261056c575b5081610556575b50610316576040518281526001600160a01b03602480356060850201013590811690819003610184576020820152604460608302602435010180359060ff821680920361018457600194859260408501527f1b2a5cecbe8d220c59277fbc1553f83bc6a5c434a2d1893c8c5300eebc9f774e608060646060880260243501013595866060820152a160005281602052604060002090828060a01b0361052360246060880281350101611727565b1682549161053560ff60a01b916119c7565b60a01b16916affffffffffffffffffffff60a81b16171781550155016103c2565b9050516064606083026024350101351485610476565b60ff919250511660ff61058860446060860260243501016119c7565b1614908661046f565b506001600160a01b036105ac60248035606088020101611727565b1615610443565b634e487b7160e01b600052603260045260246000fd5b60405163512509d360e11b8152600490fd5b604051630f59b9ff60e01b8152600490fd5b346101845760203660031901126101845761060661162e565b6001600160a01b03908082168015610328576106206119d5565b600654928360081c1690811461031657604080516001600160a01b03928316815291831660208301527f2d025324f0a785e8c12d0a0d91a9caa49df4ef20ff87e0df7213a1d4f3157beb91a1610100600160a81b031990911660089190911b610100600160a81b031617600655005b34610184576040366003190112610184576106a86115c4565b6024356001600160a01b03811691908290036101845763ffffffff166000526003602052604060002090600052602052604080600020600160ff825416910154825191151582526020820152f35b34610184576000366003190112610184576000546040516001600160a01b039091168152602090f35b34610184576000366003190112610184576007546040516001600160a01b039091168152602090f35b346101845760203660031901126101845761076161162e565b6001600160a01b038181169182156103285761077b6119d5565b6008549182169083821461031657604080516001600160a01b0393841681529190921660208201527fe22b566ac7db56412e2e041c88a7fd3151151ad6c6647e954f9bdc054bcb780e9190a16001600160a01b03191617600855005b3461018457610160366003190112610184576107f161162e565b60243560ff81169081810361018457604435926064359260a43567ffffffffffffffff8111610184576108289036906004016116d0565b916108316115d7565b9060e43593610104359260ff841684036101845760ff6006541615610a7957610858611a01565b854211610a675761086833611a24565b63ffffffff811698896000526020966003885260406000209860018060a01b03968787169a8b6000528a5260ff6040600020541615610a55578c60005260048a528960406000206040516108bb81611676565b60406002835493848452600181015495840195865201549101524210610a435751421015610a31578661098b956109758e6109708e6109819860ff9f9761095e60a88f8e61097a9c6040519687936109268a86019a3360601b8c52825192839160348901910161197f565b840192603484015260548301526bffffffffffffffffffffffff198d60601b1660748301526088820152036088810185520183611692565b61014435926101243592519020611d72565b611d6b565b611a57565b9286611aa6565b909616868a611b4d565b926084358410610a1f577ffa83d5d2a947b30f08c51454033f55a1e19d8d9b20a3d4a68cbe85d702e11ef2956109f489610a079560809433600052600a85528d604060002090600052855260406000206109e68a8254611972565b905560085416903390611bde565b60405195865285015260808401906119a2565b94604083015260608201528033940390a46001600555005b60405163bde8209360e01b8152600490fd5b604051636b5fd31b60e01b8152600490fd5b6040516323a71b8760e21b8152600490fd5b6040516349a8defd60e01b8152600490fd5b604051631ab7da6b60e01b8152600490fd5b6040516346b57c6f60e01b8152600490fd5b346101845760203660031901126101845763ffffffff610aa96115c4565b16600052600460205260606040600020805490600260018201549101549060405192835260208301526040820152f35b60e03660031901126101845760043567ffffffffffffffff811161018457610b059036906004016116d0565b610b0d6115ea565b604435906084359060ff8216820361018457610b27611a01565b60ff6006541615610a7957610b3b34611d6b565b824211610a675763ffffffff90610b5133611a24565b1691826000526020916003835260406000209173eeeeeeeeeeeeeeeeeeeeeeeeeeeeeeeeeeeeeeee9283600052845260ff6040600020541615610a555784600052600484526040600020604051610ba781611676565b8154908181526040600260018501549489840195865201549101524210610a435751421015610a3157610c229160405190610c12605483888101953360601b87528b610bfc815180928d60348701910161197f565b8201906034820152036034810185520183611692565b60c4359260a43592519020611d72565b600083815260038352604080822092825291835220600101548015610d0e57925b610c4b611752565b805115610cfc57848160ff85610c679451920151169034611b4d565b906064358210610a1f577f9b5db8da8d354582e1a2f754b54eab67f640b467f580ee9b9f5453662ef940119133600052600a845260406000208560005284526040600020610cb6828254611972565b9055600854610ccf9034906001600160a01b0316611cdd565b610ce4604051926060845260608401906119a2565b93349083015260408201528033930390a46001600555005b60405163358e2ce760e01b8152600490fd5b50816000526004815260026040600020015492610c43565b3461018457600036600319011261018457610d3f6119d5565b600080546001600160a01b0319811682556001600160a01b03167f8be0079c531659141344cd1fd0a4f28419497f9722a3daafe3b4186f6b6457e08280a3005b3461018457600036600319011261018457602063ffffffff60025416604051908152f35b346101845760003660031901126101845760065460405160089190911c6001600160a01b03168152602090f35b34610184576000366003190112610184576020600954604051908152f35b346101845760203660031901126101845760043580151580910361018457610e146119d5565b6006549060ff8216151590808214610316577fe557486689c0bf71dde8cb27e7e87ed23badcf92ea724f4a0368676720d416f6604060ff938151908152836020820152a160ff19909216911617600655005b3461018457600036600319011261018457602060ff600654166040519015158152f35b3461018457608036600319011261018457610ea26115c4565b6024359060643590604435610eb56119d5565b63ffffffff80921693827f00000000000000000000000000000000000000000000000000000000000000001685118015906110a8575b611096576000198501838111611080578316600052602092600484526040600020604051610f1881611676565b8154815260406002600184015493888401948552015491019081526001880183811161108057831660005260048652604060002092600260405194610f5c86611676565b805486526001810154898701520154926040850193845251851061106e576002541688141580938194611063575b506110515751861061103f5781611034575b50611022578360609382610fd47fcf17268674ed4ffa34a117862c7b380287afb4c202e842a5f391b92219c0e02a9786600296611d32565b60405190610fe182611676565b8152818101948552604081019283528760005260048252604060002090519485825551928360018301555193849101556040519384528301526040820152a2005b60405163ecdcda1960e01b8152600490fd5b905051841186610f9c565b60405163434c92c960e01b8152600490fd5b60405163649bb63560e01b8152600490fd5b905051851189610f8a565b60405163442db2a560e01b8152600490fd5b634e487b7160e01b600052601160045260246000fd5b6040516382a9965760e01b8152600490fd5b5082600254168511610eeb565b34610184576060366003190112610184576004356044356024356110d76119d5565b6002549263ffffffff808516806000526004602052604060002091604051916110ff83611676565b835483526040600260018601549560208601968752015493019283528181146110805760010116809663ffffffff19161760025551841061103f575181106111c55782826111717f6877931d901fa420de6b1b5c5b565c4422ab189963a871c828e7b992220e95e39560609585611d32565b6040519261117e84611676565b8352602083019081526040830191825285600052600460205260406000209251928381558151600182015560028351910155604051928352516020830152516040820152a2005b604051632ca4094f60e21b8152600490fd5b346101845760203660031901126101845760606001600160a01b03806111fb61162e565b166000526001602052604060002060ff6001825492015491604051938116845260a01c1660208301526040820152f35b60e03660031901126101845761123f61162e565b6044359060ff821682036101845760a435906001600160a01b03808316916064358385036101845761126f6115d7565b9460ff6006541615610a7957611283611a01565b836007541633036113a25761129790611a24565b63ffffffff851694856000526003602052604060002090848416918260005260205260ff6040600020541615610a555760ff976112e46112da866112ee94611a57565b9160243587611aa6565b9099168985611b4d565b906084358210610a1f577f7abcb23b61318b8b612c876bdf3070978b03e1fea48e9ee7bffb0b5b9c2f3a7c948360609588600052600a60205260406000208a6000526020526040600020611343868254611972565b905573eeeeeeeeeeeeeeeeeeeeeeeeeeeeeeeeeeeeeeee840361138957505061137190600854163490611cdd565b60405192835260208301526040820152a46001600555005b8261139d9360075416906008541691611bde565b611371565b60405163049809b160e01b8152600490fd5b346101845760003660031901126101845760206040517f00000000000000000000000000000000000000000000000000000000000000008152f35b34610184576000366003190112610184576008546040516001600160a01b039091168152602090f35b3461018457602036600319011261018457604061143b61143661162e565b61190b565b60ff6020835192805184520151166020820152f35b34610184576080366003190112610184576114696115c4565b67ffffffffffffffff6024358181116101845761148a9036906004016115fd565b91604435818111610184576114a39036906004016115fd565b9091606435908111610184576114bd9036906004016115fd565b90956114c76119d5565b85156105db578286148015906115ba575b6105c95763ffffffff169182600052602090600360205260406000209560005b88811061150157005b6001600160a01b036115176103ef838c86611717565b169081156103285761152a81858a611717565b3580151580910361018457600192887fc1a8d3b5c8695d3120c5ea6e6afca4fd990747cccf9c4513cbc02baf1c32e40d888f8e9561156a888e8b94611717565b35966040519161157983611644565b8252838201978852866000528352604060002090511515966115a788839060ff801983541691151516179055565b519182910155604051908152a4016114f8565b50818314156114d8565b6004359063ffffffff8216820361018457565b60c4359063ffffffff8216820361018457565b6024359063ffffffff8216820361018457565b9181601f840112156101845782359167ffffffffffffffff8311610184576020808501948460051b01011161018457565b600435906001600160a01b038216820361018457565b6040810190811067ffffffffffffffff82111761166057604052565b634e487b7160e01b600052604160045260246000fd5b6060810190811067ffffffffffffffff82111761166057604052565b90601f8019910116810190811067ffffffffffffffff82111761166057604052565b67ffffffffffffffff811161166057601f01601f191660200190565b81601f82011215610184578035906116e7826116b4565b926116f56040519485611692565b8284526020838301011161018457816000926020809301838601378301015290565b91908110156105b35760051b0190565b356001600160a01b03811681036101845790565b519069ffffffffffffffffffff8216820361018457565b604080519061176082611644565b6000918281528260208092015273eeeeeeeeeeeeeeeeeeeeeeeeeeeeeeeeeeeeeeee8352600181528183209282519361179885611676565b8054916001808060a01b0392838516885260ff8689019560a01c1685520154918587019283528551966117ca88611644565b82885282868901525116958615611901575060a0600496865197888092633fabe5a360e21b82525afa9182156118f557818297839461188f575b5069ffffffffffffffffffff161561187e578215928315611851575b5050506118405760ff90511691519261183884611644565b835282015290565b8251631f4bcb2b60e01b8152600490fd5b9091925042039142831161186a57505110388080611820565b634e487b7160e01b81526011600452602490fd5b855163a5959c5960e01b8152600490fd5b975050915060a0863d60a0116118ed575b816118ad60a09383611692565b810103126118ea576118be8661173b565b9169ffffffffffffffffffff85880151936118e0608060608b01519a0161173b565b5093979390611804565b80fd5b3d91506118a0565b508451903d90823e3d90fd5b9550505050505090565b6040805161191881611644565b600080825260209182018190526001600160a01b03938416815260018252828120835194909161194786611676565b6001835493838516885260ff8689019560a01c1685520154918587019283528551966117ca88611644565b9190820180921161108057565b60005b8381106119925750506000910152565b8181015183820152602001611982565b906020916119bb8151809281855285808601910161197f565b601f01601f1916010190565b3560ff811681036101845790565b6000546001600160a01b031633036119e957565b60405163118cdaa760e01b8152336004820152602490fd5b600260055414611a12576002600555565b604051633ee5aeb560e01b8152600490fd5b6001600160a01b03166000908152600b602052604090205460ff16611a4557565b6040516309550c7760e01b8152600490fd5b63ffffffff1660008181526003602090815260408083206001600160a01b0390951683529390529182206001015491908215611a9257505090565b815260046020526040902060020154919050565b611ab29093929361190b565b928351611b0d575b835115611ad1575b505060ff602083519301511690565b81158015611b02575b611af05760ff9184521660208301523880611ac2565b604051637c946ed760e01b8152600490fd5b5060ff811615611ada565b8115801590611b2e575b15611aba57604051637a21e58b60e11b8152600490fd5b5060ff81161515611b17565b8181029291811591840414171561108057565b90611b5791611b3a565b604d821161108057611b6c91600a0a90611b3a565b8115611bc85704600954611b808183611972565b7f000000000000000000000000000000000000000000000000000000000000000010611bb65781611bb091611972565b60095590565b60405163f10b176b60e01b8152600490fd5b634e487b7160e01b600052601260045260246000fd5b6040516323b872dd60e01b602082019081526001600160a01b039384166024830152938316604482015260648082019590955293845260a08401919067ffffffffffffffff83118584101761166057611c51926040521692600080938192519082875af1611c4a611cad565b9084611de1565b908151918215159283611c81575b505050611c695750565b60249060405190635274afe760e01b82526004820152fd5b819293509060209181010312611ca95760200151908115918215036118ea5750388080611c5f565b5080fd5b3d15611cd8573d90611cbe826116b4565b91611ccc6040519384611692565b82523d6000602084013e565b606090565b814710611d1a576000918291829182916001600160a01b03165af1611d00611cad565b5015611d0857565b604051630a12f52160e11b8152600490fd5b60405163cd78605960e01b8152306004820152602490fd5b904282106111c5571115611d595715611d4757565b604051631009a9ad60e11b8152600490fd5b6040516338af65f760e01b8152600490fd5b15611af057565b92611dbe90611dc7929360018060a01b03948560065460081c16967f19457468657265756d205369676e6564204d6573736167653a0a333200000000600052601c52603c600020611e32565b90929192611ec2565b1603611dcf57565b604051638baa579f60e01b8152600490fd5b90611df65750805115611d0857805190602001fd5b81511580611e29575b611e07575090565b604051639996b31560e01b81526001600160a01b039091166004820152602490fd5b50803b15611dff565b91907f7fffffffffffffffffffffffffffffff5d576e7357a4501ddfe92f46681b20a08411611eb657926020929160ff608095604051948552168484015260408301526060820152600092839182805260015afa15611eaa5780516001600160a01b03811615611ea157918190565b50809160019190565b604051903d90823e3d90fd5b50505060009160039190565b6004811015611f315780611ed4575050565b60018103611eee5760405163f645eedf60e01b8152600490fd5b60028103611f0f5760405163fce698f760e01b815260048101839052602490fd5b600314611f195750565b602490604051906335e2f38360e21b82526004820152fd5b634e487b7160e01b600052602160045260246000fdfea2646970667358221220b4320b9fecbc8f9ff9ec4ec3019056713ea5cbcaa0948651291ec84fa4ef595664736f6c63430008190033","linkReferences":{}},"methodIdentifiers":{"allowedTokens(uint32,address)":"92f58881","blacklistAddress(address)":"f3290d75","buyEnable()":"3d389faf","changeFundsWallet(address)":"7d6f0d5f","changeSigner(address)":"aad2b723","claims(address,uint32)":"e9f8958f","claimsContract()":"7fcb0972","createNewRound(uint256,uint256,uint256)":"2a253026","enableBuy(bool)":"41e7e341","fundsWallet()":"2194f3a2","getLatestPrice(address)":"16345f18","getRoundCount()":"6de7da78","maxCap()":"23548b8b","owner()":"8da5cb5b","purchaseTokenWithETH(string,uint32,uint256,uint256,uint8,bytes32,bytes32)":"72287c02","purchaseTokenWithToken(address,uint8,uint256,uint256,uint256,string,uint32,uint256,uint8,bytes32,bytes32)":"7bc2d710","purchaseWithClaim(address,uint256,uint8,uint256,uint256,address,uint32)":"27824e53","renounceOwnership()":"715018a6","rounds(uint32)":"79a6d51f","setTokenPriceFeed(address[],(address,uint8,uint256)[])":"cbbb2899","signerWallet()":"64f0d35e","tokenData(address)":"27e45c2c","totalPurchases()":"5962a941","transferOwnership(address)":"f2fde38b","updateAllowedTokens(uint32,address[],bool[],uint256[])":"0a7e0c56","updateBlackListedUser(address,bool)":"e09590d1","updateRound(uint32,uint256,uint256,uint256)":"2d55e7df"},"id":4}